:100000000C944B000C9468000C94F1020C94680062
:100010000C9468000C9468000C9468000C946800C0
:100020000C9468000C9468000C9468000C946800B0
:100030000C9468000C9468000C9468000C946800A0
:100040000C9468000C9468000C9468000C94680090
:100050000C946800AC00950095009500C7009500D1
:100060009500950095009500CC00D100A600D60023
:100070009500AF00C2009500A9009500BD00F001F9
:10008000F201DB01DD01DF01E101E301E501E7014F
:10009000E901EB01ED0111241FBECFE5D8E0DEBF81
:1000A000CDBF12E0A0E6B0E0E4EDF1E102C00590C2
:1000B0000D92AE33B107D9F722E0AEE3B2E001C052
:1000C0001D92AF33B207E1F70E945F030C94E8087A
:1000D0000C94000086B1816086B986B1826086B9D1
:1000E00086B1806886B9089517B886B1806186B9EF
:1000F00086B1806486B9349BFECF84B195B10895F2
:1001000081E087B986B1806186B986B1806486B99D
:10011000349BFECF84B195B108950E9430060E94B1
:100120001E0480E690E00E9434070E94D9050E94D8
:100130003B020E942B07FC01FF27E556F109E53140
:10014000F10598F7E65DFF4F0C94E2080E946B04FE
:10015000ECCF0E94E404E9CF0E94D306E6CF0E94D0
:1001600013072FEB87E299E0215080409040E1F7A0
:1001700000C000000E941807D8CF95B384E08927FB
:1001800085BBD3CF95B388E0892785BBCECF95B308
:1001900080E1892785BBC9CF95B380E2892785BBDC
:1001A000C4CF92B384E0892782BBBFCF08950E9459
:1001B000D9050E943B020E9451050E94E00280E6A0
:1001C00090E00E94CD020E94F401823339F130F4B4
:1001D000803309F483C0813349F0F5CF843309F4C7
:1001E0004DC0A0F1853309F461C0EDCFAA9B09C0D1
:1001F00061E081E00E94E4028EE690E00E94CD0280
:1002000008C061E081E00E94E40288E790E00E947B
:10021000CD0295B384E0892785BBD5CFAB9B09C0C0
:1002200061E081E00E94E40282E890E00E94CD0259
:1002300008C061E081E00E94E4028CE890E00E9446
:10024000CD0295B388E0892785BBBDCFAC9B09C0A3
:1002500061E081E00E94E40286E990E00E94CD0224
:1002600008C061E081E00E94E40280EA90E00E9420
:10027000CD0295B380E1892785BBA5CFAD9B09C091
:1002800061E081E00E94E4028AEA90E00E94CD02EF
:1002900008C061E081E00E94E40284EB90E00E94EB
:1002A000CD0295B380E2892785BB8DCF929B09C093
:1002B00061E081E00E94E4028EEB90E00E94CD02BA
:1002C00008C061E081E00E94E40288EC90E00E94B6
:1002D000CD0292B384E0892782BB75CF08950E9436
:1002E000B30108951F93CF93DF93EC01162F0E9463
:1002F000BA01CE0188279770880F892F881F990B24
:100300009195806A0E94C3018C2F0E94C301812FA6
:100310000E94C3010E94C001DF91CF911F910895F7
:100320000F931F93CF93DF938C010E94BA01E801D2
:10033000CC27D770CC0FCD2FCC1FDD0BD1958C2FB8
:10034000806A0E94C301802F0E94C3010E94BA01EB
:100350008C2F816A0E94C3010E94CA01DF91CF9154
:100360001F910F91089582E080B911B882B984E09D
:1003700086BF089584EA86BF06B607FEFDCF0895BE
:1003800084E986BF089583B984E886BF06B607FE70
:10039000FDCF089584E886BF06B607FEFDCF83B182
:1003A000089590E0FC013197EC30F105C0F4E15C78
:1003B000FF4F0C94E20883E3089584E3089585E3F6
:1003C000089586E3089587E3089588E3089589E30F
:1003D00008958AE2089580E3089583E208950895D8
:1003E00081E3089582E308950E94D9050E943B02AB
:1003F00080E02EC020E130E0082E02C0220F331F23
:100400000A94E2F727BB209528BB90E01EC026B3D4
:10041000492F30E0092E02C0359527950A94E2F75E
:1004200020FD12C026B330E0042E02C0359527957A
:100430000A94E2F720FFF6CF292F220F920F890F9F
:100440008F5F0E94D10108959F5F943000F38F5F0A
:10045000833080F2C9CF85B5806485BD85B588605D
:1004600085BD85B5806285BD85B5826085BD85B554
:10047000816085BD08950E94800083BD089595B375
:100480009F7795BB95B3906495BBE9EFF0E031970A
:10049000F1F700C00000982F907F9BBBE9EFF0E0E0
:1004A0003197F1F700C0000095B39F7B95BBE9EF52
:1004B000F0E03197F1F700C0000095B3906495BB70
:1004C000E9EFF0E03197F1F700C00000F0E18F9F15
:1004D000C00111248BBB89EF90E00197F1F700C0B8
:1004E000000085B38F7B85BBE9EFF0E03197F1F732
:1004F00000C00000089584B3806884BB84B3806426
:1005000084BB8AB3806F8ABB82E00E943F0288E28C
:100510000E943F0281E00E943F028CE00E943F0265
:10052000089595B3906895BB95B3906495BBE9EF3A
:10053000F0E03197F1F700C00000982F907F9BBB4F
:10054000E9EFF0E03197F1F700C0000095B39F7B31
:1005500095BBE9EFF0E03197F1F700C0000095B3EB
:10056000906495BBE9EFF0E03197F1F700C000002F
:10057000F0E18F9FC00111248BBB89EF90E00197C0
:10058000F1F700C0000085B38F7B85BBE9EFF0E099
:100590003197F1F700C0000008950F931F93CF9398
:1005A0008C01C0E003C00E949102CF5FF801EC0F04
:1005B000F11D80818111F7CFCF911F910F91089587
:1005C00081E00E943F020895882329F0813021F4C0
:1005D00090E4960F01C0962F80E8890F0E943F0299
:1005E00008951F920F920FB60F9211242F933F93ED
:1005F0004F935F936F937F938F939F93AF93BF932B
:10060000EF93FF930E94E00283ED90E30197F1F7EF
:1006100000C0000082ED90E00E94CD029FE32DE03B
:1006200083E0915020408040E1F700C000000E942C
:10063000D700FF91EF91BF91AF919F918F917F91E3
:100640006F915F914F913F912F910F900FBE0F903F
:100650001F9018950E94FF060E942B020E946A00BC
:100660000E947B020E946F010E941D078AB3846072
:100670008ABB81B3806281BB81B3806481BB81B35B
:10068000806881BB82B3886082BB8BB780688BBF78
:10069000789484B3846084BB84B3886084BB84B35F
:1006A000806184BB84B3806284BB81B3846081BB7E
:1006B0008AB3877F8ABB8BB38B7F8BBB08950E94E5
:1006C0002A038AED90E00E94CD022FE78AE196E0AE
:1006D000215080409040E1F700C000000E948D0052
:1006E000FDCFFC01421313C090E00DC0292F30E074
:1006F000DF01A20FB31F5C91DB01A20FB31F8C912E
:10070000581307C09F5F941788F381E0089580E035
:10071000089580E00895EF92FF920F931F93CF9377
:10072000DF937C018EE00E943F02C0E0D0E024C055
:100730000E94F401833219F18A3239F41C161D0625
:1007400024F480E20E94910217C08A3219F41C1628
:100750001D0684F4C430D10579F08A3269F08E0127
:100760000F5F1F4FCE0DDF1D88838AE20E9491022A
:10077000E80102C0C0E0D0E0C530D105CCF28CE089
:100780000E943F028C2FDF91CF911F910F91FF901C
:10079000EF900895EF92FF920F931F93CF93DF9303
:1007A0008C01C0E0D0E013C00E942B078F3291F083
:1007B000C430D10561F07E019FEFE91AF90AC00F3C
:1007C000D11F888382EE90E00E943407E701C53094
:1007D000D10554F38C2FDF91CF911F910F91FF9092
:1007E000EF900895EF92FF921F93CF93DF93182F0E
:1007F0007B0181E090E00E949001811318C0C0E06D
:1008000012C08C2F90E0F701E80FF91FD0810296FB
:100810000E949001D81731F084EE90E00E943407D6
:1008200080E006C0CF5FC11760F381E001C080E0C7
:10083000DF91CF911F91FF90EF9008951F93CF9379
:10084000DF9300D000D0CDB7DEB719821A821B82A9
:100850001C8210E02CC00E94E00282EF90E00E9417
:10086000340762E081E00E94E402CE0101960E941A
:10087000CA03BE016F5F7F4F0E94F203882391F08D
:100880008BE091E00E9434070E9413072FE181EA78
:1008900097E0215080409040E1F700C000000E94A6
:1008A000180707C01F5F8BE191E00E9434071330E7
:1008B00090F2133040F088E291E00E9434078BB34D
:1008C00084608BBBFFCF0F900F900F900F90DF9144
:1008D000CF911F910895FF920F931F93CF93DF93B2
:1008E000CDB7DEB728970FB6F894DEBF0FBECDBFE9
:1008F00019821A821B821C821D821E821F82188608
:1009000083E391E00E9434070E942B078C0111279A
:10091000C8010E94270784E491E00E943407CE01B9
:1009200001960E94CA03F82E89E591E00E943407DF
:10093000CE0105960E94CA03282F4F2DBE016B5F82
:100940007F4FCE0101960E94710381111EC026C007
:1009500083ED90E30197F1F700C000002F2D30E008
:10096000C801880F991F880F991F800F911F820F50
:10097000931FE1E0F0E0EC0FFD1FE20FF31F608139
:1009800001960E947201F39401C0F12C93E09F152F
:10099000F8F68EE691E00E9434070AC08FE791E0F6
:1009A0000E94340780E991E00E9434070E946B04A2
:1009B00028960FB6F894DEBF0FBECDBFDF91CF9162
:1009C0001F910F91FF900895CF93DF9383EA91E0F9
:1009D0000E9434070E942B07EC01DD27CE010E9404
:1009E0002707CE01880F991F880F991FC80FD91F9D
:1009F00060E0CE0101960E94720160E0CE01029695
:100A00000E94720160E0CE0103960E94720160E0D4
:100A1000CE0104960E94720182EB91E00E9434079D
:100A2000DF91CF910895EF92FF920F931F93CF9391
:100A3000DF93F82E8B01E42EC0E029C04C2F50E04C
:100A4000F801E40FF51FD0812E2D30E0C901880F89
:100A5000991F880F991F280F391FCA01820F931FF2
:100A600001960E949001D81789F00E94E00287EB5E
:100A700091E00E94CD022FE38DE093E02150804071
:100A80009040E1F700C0000080E004C0CF5FCF15C8
:100A9000A8F281E0DF91CF911F910F91FF90EF902D
:100AA0000895EF92FF921F93CF93DF9300D000D071
:100AB000CDB7DEB719821A821B821C820E94E00227
:100AC00084E391E00E94CD020E94F401182F0E945D
:100AD00091020E94F4018332B9F7E12CF12C5AC043
:100AE0000E94E00286EC91E00E94CD0262E081E08B
:100AF0000E94E402CE0101960E948B03412FBE01A9
:100B00006F5F7F4F0E941305882321F10E94E0024E
:100B10008CED91E00E94CD028AEE91E00E943407B4
:100B2000812F90E00E94270781EF91E00E94340717
:100B300062E081E00E94E4028AED90E00E94CD0232
:100B40002FE38DE093E0215080409040E1F700C01A
:100B5000000025C00E94E00288EF91E00E94CD02D3
:100B60002FEFE21AF20A83E0E816F10450F00E9437
:100B7000E00288E291E00E94CD028BB384608BBBDF
:100B8000FFCF9FE926E881E0915020408040E1F7C7
:100B900000C0000093E0E916F10408F4A1CF0F9023
:100BA0000F900F900F90DF91CF911F91FF90EF90DA
:100BB0000895CF92DF92EF92FF920E947400BC01E1
:100BC000660F771F660F771F680F791F072E000CBF
:100BD000880B990B0E94C00720E030EC4FE754E4EB
:100BE0000E944C0720E030E048EC52E40E94750877
:100BF0006B017C0120E030E040EE51E40E9470087F
:100C0000181624F482B3806482BB0DC020E030E06B
:100C100048EA51E4C701B6010E94470788231CF443
:100C200082B38F7B82BBFF90EF90DF90CF900895CF
:100C3000CF93DF93D0E0C0E009C08C2F90E0029604
:100C40000E949001811101C0DF5FCF5FC430A8F323
:100C5000D43011F481E001C080E0DF91CF9108959C
:100C60000F931F93CF93DF93CDB7DEB728970FB6BF
:100C7000F894DEBF0FBECDBF19821A821B821C8280
:100C80001D821E821F8218860E941806813029F05C
:100C900080913E02813009F07BC00E94E00261E059
:100CA00080E00E94E40285E491E00E94CD0262E0CF
:100CB00081E00E94E402CE0101960E94CA03082F3F
:100CC0000E94E00261E080E00E94E4028AE591E097
:100CD0000E94CD0262E081E00E94E402CE0105960E
:100CE0000E94CA03282F402FBE016B5F7F4FCE01A9
:100CF00001960E947103882361F1602F81E090E0EA
:100D00000E94720110E013C083ED90E30197F1F7A8
:100D100000C00000812F90E0E1E0F0E0EC0FFD1F4B
:100D2000E80FF91F608102960E9472011F5F101781
:100D300058F30E94E00287E092E00E94CD029FE318
:100D40002DE083E0915020408040E1F700C000009A
:100D50001DC00E94E00261E080E00E94E40287EB97
:100D600091E00E94CD0262E081E00E94E40286E10F
:100D700092E00E94CD029FE32DE083E0915020405D
:100D80008040E1F700C000000E94300610923E0251
:100D900028960FB6F894DEBF0FBECDBFDF91CF917E
:100DA0001F910F910895CF93DF9300D000D0CDB75E
:100DB000DEB719821A821B821C8287E292E00E94AF
:100DC0003407CE0101960E94CA03BE016F5F7F4FB8
:100DD0000E94F203882331F081E080933E020E945A
:100DE000300606C08FE791E00E9434070E94D306C8
:100DF0000F900F900F900F90DF91CF9108958FB5C6
:100E000080688FBD8FB582608FBD8EB588608EBDC6
:100E10008EB580618EBD8EB582608EBD84EC99E00A
:100E200097BD86BD08958BEB90E09BBD8ABD08956C
:100E30008CE790E09BBD8ABD08958BB182608BB931
:100E400088E18AB986E880BD8CE089B908955D9B08
:100E5000FECF8CB9089504C00E94D9050E943B02C0
:100E60005F9BFACF8CB108950F931F93CF938C01A2
:100E7000C0E003C00E942707CF5FF801EC0FF11D0F
:100E800080818111F7CFCF911F910F9108950E941A
:100E9000FB0708F481E008950E9460070C9436086F
:100EA0000E942F0858F00E94280840F029F45F3F64
:100EB00029F00C941F0851110C946A080C94250811
:100EC0000E94470868F39923B1F3552391F3951BCA
:100ED000550BBB27AA2762177307840738F09F5F5B
:100EE0005F4F220F331F441FAA1FA9F335D00E2EC8
:100EF0003AF0E0E832D091505040E695001CCAF735
:100F00002BD0FE2F29D0660F771F881FBB1F2617F7
:100F100037074807AB07B0E809F0BB0B802DBF01CE
:100F2000FF2793585F4F3AF09E3F510578F00C949D
:100F30001F080C946A085F3FE4F3983ED4F386954B
:100F400077956795B795F7959F5FC9F7880F911DBE
:100F50009695879597F90895E1E0660F771F881FAA
:100F6000BB1F621773078407BA0720F0621B730B5D
:100F7000840BBA0BEE1F88F7E0950895E89409C03A
:100F800097FB3EF490958095709561957F4F8F4FBC
:100F90009F4F9923A9F0F92F96E9BB279395F695D2
:100FA000879577956795B795F111F8CFFAF4BB0F50
:100FB00011F460FF1BC06F5F7F4F8F4F9F4F16C0B4
:100FC000882311F096E911C0772321F09EE8872F3E
:100FD000762F05C0662371F096E8862F70E060E0FA
:100FE0002AF09A95660F771F881FDAF7880F969573
:100FF000879597F90895990F0008550FAA0BE0E817
:10100000FEEF16161706E807F907C0F012161306CA
:10101000E407F50798F0621B730B840B950B39F40A
:101020000A2661F0232B242B252B21F408950A2670
:1010300009F4A140A6958FEF811D811D089597F9B0
:101040009F6780E870E060E008959FEF80EC08956E
:1010500000240A9416161706180609060895002497
:101060000A9412161306140605060895092E039411
:10107000000C11F4882352F0BB0F40F4BF2B11F485
:1010800060FF04C06F5F7F4F8F4F9F4F089557FDE4
:101090009058440F551F59F05F3F71F04795880FE6
:1010A00097FB991F61F09F3F79F08795089512167D
:1010B00013061406551FF2CF4695F1DF08C0161629
:1010C00017061806991FF1CF8695710561050894DA
:1010D0000895E894BB2766277727CB0197F90895F1
:1010E0000E94FB0708F48FEF08950E9488080C9473
:1010F00036080E94280838F00E942F0820F0952317
:1011000011F00C941F080C94250811240C946A0803
:101110000E94470870F3959FC1F3950F50E0551F4B
:10112000629FF001729FBB27F00DB11D639FAA273C
:10113000F00DB11DAA1F649F6627B00DA11D661F8B
:10114000829F2227B00DA11D621F739FB00DA11DAC
:10115000621F839FA00D611D221F749F3327A00D66
:10116000611D231F849F600D211D822F762F6A2F02
:1011700011249F5750409AF0F1F088234AF0EE0F67
:10118000FF1FBB1F661F771F881F91505040A9F794
:101190009E3F510580F00C941F080C946A085F3F35
:1011A000E4F3983ED4F3869577956795B795F795D0
:1011B000E7959F5FC1F7FE2B880F911D9695879548
:1011C00097F90895EE0FFF1F0590F491E02D099413
:0411D000F894FFCFC1
:1011D40043686F6F7365204F7074696F6E004C4580
:1011E400442031206F6666004C45442031206F6EE8
:1011F40020004C45442032206F6666004C45442054
:1012040032206F6E20004C45442033206F66660008
:101214004C45442033206F6E20004C45442034203C
:101224006F6666004C45442034206F6E20004C45A8
:10123400442035206F6666004C45442035206F6E8F
:101244002000557365722E2E2E0057656C636F6DEA
:1012540065002A002057726F6E67205061737321F6
:10126400200020456E7465722061646D696E207083
:10127400617373776F7264203A2000204C6F676942
:101284006E20537563636573732000207472792034
:10129400616761696E3A200020626C6F636B6564FC
:1012A4003A200020656E746572207573657220693A
:1012B400643A200020596F7572206E657720506162
:1012C4007373776F72643A20002052652D656E74D3
:1012D40065722050617373776F72643A20002070D6
:1012E400617373776F726420736176656420002084
:1012F40057726F6E672050617373776F726420004A
:1013040020506C656173652054727920616761694E
:101314006E20002055736572206964206973203A39
:101324002000206F6B200057726F6E67205061732E
:1013340073776F726400456E74657220796F75728D
:101344002070617373776F72643A200075736572ED
:10135400205665726966696564002055736572205C
:1013640000204C6F67696E0077726F6E6720506162
:101374007373776F72640070617373776F72642034
:10138400736176656400506C65617365205472798D
:1013940020616761696E0020456E746572206F6C10
:0E13A400642070617373776F7264203A2000CA
:00000001FF
