:100000000C942A000C9447000C9445020C94470071
:100010000C9447000C9447000C9447000C94470044
:100020000C9447000C9447000C9447000C94B102C8
:100030000C9447000C9447000C9447000C94470024
:100040000C9447000C9447000C9447000C94470014
:100050000C94470011241FBECFE5D8E0DEBFCDBF12
:1000600010E0A0E6B0E0ECE1F6E002C005900D92F1
:10007000A43AB107D9F720E0A4EAB0E001C01D928C
:10008000AE3AB207E1F70E94C8010C940C030C943D
:1000900000000E94E4010E944C010E94CE000E94D8
:1000A000260281B3806281BB81B3806881BB0E94DC
:1000B00034028FE493EC0197F1F700C0000008953B
:1000C0000E9434028BE49DE10197F1F700C000002B
:1000D0008091AA009091AB00843691050CF05BC032
:1000E0000E94FA010E9434029FE52AEE80E09150BE
:1000F00020408040E1F700C000008091AA0090916C
:10010000AB0084369105B4F50E9408020E943402C7
:100110009FE52AEE80E0915020408040E1F700C04A
:1001200000008091AA009091AB00843691058CF478
:100130000E94B70180E690E00E94A40160E081E0A7
:100140000E94BB018CE690E00E94A4010E9406017F
:1001500008950E94B7018CE790E00E94A4010E94DC
:10016000F4000E94B7018AE890E00E94A4010E9476
:10017000D601A6CF0E94B70185E990E00E94A401B4
:100180000E94E2000E94B7018AE890E00E94A40168
:100190000E94D60195CF0E94DB0092CF87B3846086
:1001A00087BB87B3806187BB88B38B7F88BB88B3ED
:1001B0008F7E88BB089588B3846088BB88B38061D4
:1001C00088BB089588B3846088BB88B38F7E88BB62
:1001D0002FEF83ED90E3215080409040E1F700C085
:1001E00000000E94DB00089588B3806188BB88B35B
:1001F0008B7F88BB2FEF83ED90E3215080409040B0
:10020000E1F700C000000E94DB00089588B38B7FF7
:1002100088BB88B38F7E88BB089595B39D7F95BBBF
:1002200095B39B7F95BB95B3986095BBEFECF7E0DA
:100230003197F1F700C00000982F907F9BBBEFEC47
:10024000F7E03197F1F700C0000095B3977F95BBB9
:10025000EFECF7E03197F1F700C0000095B398603C
:1002600095BBEFECF7E03197F1F700C00000F0E14B
:100270008F9FC00111248BBB8FEC97E00197F1F7A2
:1002800000C0000085B3877F85BBEFECF7E03197B6
:10029000F1F700C00000089584B3826084BB84B38A
:1002A000846084BB84B3886084BB8AB3806F8ABB5C
:1002B00082E00E940D0188E20E940D0181E00E940F
:1002C0000D018CE00E940D01089595B3926095BBDD
:1002D00095B39B7F95BB95B3986095BBEFECF7E02A
:1002E0003197F1F700C00000982F907F9BBBEFEC97
:1002F000F7E03197F1F700C0000095B3977F95BB09
:10030000EFECF7E03197F1F700C0000095B398608B
:1003100095BBEFECF7E03197F1F700C00000F0E19A
:100320008F9FC00111248BBB8FEC97E00197F1F7F1
:1003300000C0000085B3877F85BBEFECF7E0319705
:10034000F1F700C0000008950F931F93CF938C0125
:10035000C0E003C00E946501CF5FF801EC0FF11D02
:1003600080818111F7CFCF911F910F91089581E086
:100370000E940D010895882329F0813021F490E432
:10038000960F01C0962F80E8890F0E940D010895F5
:1003900078940E94490083EC99E00197F1F700C03E
:1003A00000000E94600080E090E008958CED95E0F0
:1003B0009BBD8ABD2FE382E49FE0215080409040A6
:1003C000E1F700C0000008958FB580688FBD8FB53C
:1003D00082608FBD8EB588608EBD8EB580618EBD0A
:1003E0008EB582608EBD80E29EE497BD86BD0E9480
:1003F000D601089580ED97E09BBD8ABD2FE382E48E
:100400009FE0215080409040E1F700C00000089537
:1004100088EE93E09BBD8ABD2FE382E49FE02150EC
:1004200080409040E1F700C00000089513BE83B7FC
:10043000816083BF12BE89B7816089BF089585B787
:10044000846085BF8BB780688BBF089581B381605E
:1004500081BB81B3877F81BB82B3886082BB0E94EE
:100460001F020E94160208958091A90081110CC0FC
:1004700082B3816082BB88E28A95F1F782B38E7F76
:1004800082BB81E08093A90008951F920F920FB65E
:100490000F9211242F933F934F935F936F937F930A
:1004A0008F939F93AF93BF93EF93FF938091A90096
:1004B000813009F045C08091A80081110DC012BEA5
:1004C00081E08093A8001092A4001092A5001092E1
:1004D000A6001092A70034C08091A4009091A500BE
:1004E000A091A600B091A700BA2FA92F982F882716
:1004F00022B7BC01CD01620F711D811D911D22ED3E
:1005000031E040E050E00E94EA022093AA003093DC
:10051000AB004093AC005093AD002FEF89EF90E01B
:10052000215080409040E1F700C000001092A400EC
:100530001092A5001092A6001092A7001092A80099
:10054000FF91EF91BF91AF919F918F917F916F91AB
:100550005F914F913F912F910F900FBE0F901F9081
:1005600018951F920F920FB60F9211242F938F930D
:100570009F93AF93BF938091A4009091A500A09109
:10058000A600B091A7000196A11DB11D8093A40003
:100590009093A500A093A600B093A7008B3D924036
:1005A000A105B10568F012BE1092A9001092A80032
:1005B0001092A4001092A5001092A6001092A7001D
:1005C000BF91AF919F918F912F910F900FBE0F9080
:1005D0001F901895A1E21A2EAA1BBB1BFD010DC08E
:1005E000AA1FBB1FEE1FFF1FA217B307E407F507E3
:1005F00020F0A21BB30BE40BF50B661F771F881FBF
:10060000991F1A9469F760957095809590959B0154
:0C061000AC01BD01CF010895F894FFCFAC
:10061C0043617220537475636B20210050726573B3
:10062C00732052657365742042757400526F746147
:10063C0074696E67206C65667400476F20466F7234
:10064C007761726400526F746174696E67205269CD
:04065C006768740057
:00000001FF
